{
  "contractName": "CorporateVoting",
  "abi": [
    {
      "inputs": [],
      "stateMutability": "nonpayable",
      "type": "constructor"
    },
    {
      "inputs": [
        {
          "internalType": "string",
          "name": "evid",
          "type": "string"
        }
      ],
      "name": "getResults",
      "outputs": [
        {
          "components": [
            {
              "internalType": "uint256",
              "name": "winner",
              "type": "uint256"
            },
            {
              "components": [
                {
                  "internalType": "uint256",
                  "name": "optionNum",
                  "type": "uint256"
                },
                {
                  "internalType": "uint256",
                  "name": "totalVotes",
                  "type": "uint256"
                }
              ],
              "internalType": "struct CorporateVoting.OptionRes[]",
              "name": "optionTotals",
              "type": "tuple[]"
            }
          ],
          "internalType": "struct CorporateVoting.Result",
          "name": "",
          "type": "tuple"
        }
      ],
      "stateMutability": "view",
      "type": "function",
      "constant": true
    },
    {
      "inputs": [
        {
          "internalType": "string",
          "name": "evid",
          "type": "string"
        }
      ],
      "name": "getAllEventVotes",
      "outputs": [
        {
          "components": [
            {
              "internalType": "address",
              "name": "userAddress",
              "type": "address"
            },
            {
              "internalType": "string",
              "name": "uid",
              "type": "string"
            },
            {
              "internalType": "uint256",
              "name": "voteOptionNum",
              "type": "uint256"
            },
            {
              "internalType": "uint256",
              "name": "timestamp",
              "type": "uint256"
            }
          ],
          "internalType": "struct CorporateVoting.EventVote[]",
          "name": "",
          "type": "tuple[]"
        }
      ],
      "stateMutability": "view",
      "type": "function",
      "constant": true
    },
    {
      "inputs": [
        {
          "internalType": "string",
          "name": "evid",
          "type": "string"
        },
        {
          "internalType": "string",
          "name": "uid",
          "type": "string"
        },
        {
          "internalType": "uint256",
          "name": "option",
          "type": "uint256"
        }
      ],
      "name": "vote",
      "outputs": [],
      "stateMutability": "nonpayable",
      "type": "function"
    }
  ],
  "bytecode": "0x608060405234801561001057600080fd5b506111bc806100206000396000f3fe608060405234801561001057600080fd5b50600436106100415760003560e01c80632ff20f01146100465780634efad05d146100765780637a4c96ad146100a6575b600080fd5b610060600480360381019061005b919061091e565b6100c2565b60405161006d9190610a9b565b60405180910390f35b610090600480360381019061008b919061091e565b6103c4565b60405161009d9190610ca2565b60405180910390f35b6100c060048036038101906100bb9190610cf0565b61053d565b005b6100ca610752565b6100d2610752565b600080846040516100e39190610db7565b90815260200160405180910390206001018054905067ffffffffffffffff811115610111576101106107f3565b5b60405190808252806020026020018201604052801561014a57816020015b61013761076c565b81526020019060019003908161012f5790505b5090506000805b6000866040516101619190610db7565b9081526020016040518091039020600101805490508110156103a557600082036101ca576000866040516101959190610db7565b908152602001604051809103902060010181815481106101b8576101b7610dce565b5b906000526020600020015491506102b4565b6000866040516101da9190610db7565b9081526020016040518091039020600001600080886040516101fc9190610db7565b9081526020016040518091039020600101838154811061021f5761021e610dce565b5b90600052602060002001548152602001908152602001600020546000876040516102499190610db7565b908152602001604051809103902060000160008481526020019081526020016000205410156102b3576000866040516102829190610db7565b908152602001604051809103902060010181815481106102a5576102a4610dce565b5b906000526020600020015491505b5b60405180604001604052806000886040516102cf9190610db7565b908152602001604051809103902060010183815481106102f2576102f1610dce565b5b906000526020600020015481526020016000886040516103129190610db7565b90815260200160405180910390206000016000808a6040516103349190610db7565b9081526020016040518091039020600101858154811061035757610356610dce565b5b906000526020600020015481526020019081526020016000205481525083828151811061038757610386610dce565b5b6020026020010181905250808061039d90610e2c565b915050610151565b5080836000018181525050818360200181905250829350505050919050565b60606001826040516103d69190610db7565b9081526020016040518091039020805480602002602001604051908101604052809291908181526020016000905b8282101561053257838290600052602060002090600402016040518060800160405290816000820160009054906101000a900473ffffffffffffffffffffffffffffffffffffffff1673ffffffffffffffffffffffffffffffffffffffff1673ffffffffffffffffffffffffffffffffffffffff16815260200160018201805461048d90610ea3565b80601f01602080910402602001604051908101604052809291908181526020018280546104b990610ea3565b80156105065780601f106104db57610100808354040283529160200191610506565b820191906000526020600020905b8154815290600101906020018083116104e957829003601f168201915b505050505081526020016002820154815260200160038201548152505081526020019060010190610404565b505050509050919050565b610545610786565b8281602001819052508181604001818152505033816000019073ffffffffffffffffffffffffffffffffffffffff16908173ffffffffffffffffffffffffffffffffffffffff1681525050428160600181815250506001846040516105aa9190610db7565b908152602001604051809103902081908060018154018082558091505060019003906000526020600020906004020160009091909190915060008201518160000160006101000a81548173ffffffffffffffffffffffffffffffffffffffff021916908373ffffffffffffffffffffffffffffffffffffffff160217905550602082015181600101908161063e9190611080565b5060408201518160020155606082015181600301555050600080856040516106669190610db7565b9081526020016040518091039020600001600084815260200190815260200160002054036106d75760008460405161069e9190610db7565b90815260200160405180910390206001018290806001815401808255809150506001900390600052602060002001600090919091909150555b60016000856040516106e99190610db7565b90815260200160405180910390206000016000848152602001908152602001600020546107169190611152565b6000856040516107269190610db7565b908152602001604051809103902060000160008481526020019081526020016000208190555050505050565b604051806040016040528060008152602001606081525090565b604051806040016040528060008152602001600081525090565b6040518060800160405280600073ffffffffffffffffffffffffffffffffffffffff1681526020016060815260200160008152602001600081525090565b6000604051905090565b600080fd5b600080fd5b600080fd5b600080fd5b6000601f19601f8301169050919050565b7f4e487b7100000000000000000000000000000000000000000000000000000000600052604160045260246000fd5b61082b826107e2565b810181811067ffffffffffffffff8211171561084a576108496107f3565b5b80604052505050565b600061085d6107c4565b90506108698282610822565b919050565b600067ffffffffffffffff821115610889576108886107f3565b5b610892826107e2565b9050602081019050919050565b82818337600083830152505050565b60006108c16108bc8461086e565b610853565b9050828152602081018484840111156108dd576108dc6107dd565b5b6108e884828561089f565b509392505050565b600082601f830112610905576109046107d8565b5b81356109158482602086016108ae565b91505092915050565b600060208284031215610934576109336107ce565b5b600082013567ffffffffffffffff811115610952576109516107d3565b5b61095e848285016108f0565b91505092915050565b6000819050919050565b61097a81610967565b82525050565b600081519050919050565b600082825260208201905092915050565b6000819050602082019050919050565b6040820160008201516109c26000850182610971565b5060208201516109d56020850182610971565b50505050565b60006109e783836109ac565b60408301905092915050565b6000602082019050919050565b6000610a0b82610980565b610a15818561098b565b9350610a208361099c565b8060005b83811015610a51578151610a3888826109db565b9750610a43836109f3565b925050600181019050610a24565b5085935050505092915050565b6000604083016000830151610a766000860182610971565b5060208301518482036020860152610a8e8282610a00565b9150508091505092915050565b60006020820190508181036000830152610ab58184610a5e565b905092915050565b600081519050919050565b600082825260208201905092915050565b6000819050602082019050919050565b600073ffffffffffffffffffffffffffffffffffffffff82169050919050565b6000610b1482610ae9565b9050919050565b610b2481610b09565b82525050565b600081519050919050565b600082825260208201905092915050565b60005b83811015610b64578082015181840152602081019050610b49565b60008484015250505050565b6000610b7b82610b2a565b610b858185610b35565b9350610b95818560208601610b46565b610b9e816107e2565b840191505092915050565b6000608083016000830151610bc16000860182610b1b565b5060208301518482036020860152610bd98282610b70565b9150506040830151610bee6040860182610971565b506060830151610c016060860182610971565b508091505092915050565b6000610c188383610ba9565b905092915050565b6000602082019050919050565b6000610c3882610abd565b610c428185610ac8565b935083602082028501610c5485610ad9565b8060005b85811015610c905784840389528151610c718582610c0c565b9450610c7c83610c20565b925060208a01995050600181019050610c58565b50829750879550505050505092915050565b60006020820190508181036000830152610cbc8184610c2d565b905092915050565b610ccd81610967565b8114610cd857600080fd5b50565b600081359050610cea81610cc4565b92915050565b600080600060608486031215610d0957610d086107ce565b5b600084013567ffffffffffffffff811115610d2757610d266107d3565b5b610d33868287016108f0565b935050602084013567ffffffffffffffff811115610d5457610d536107d3565b5b610d60868287016108f0565b9250506040610d7186828701610cdb565b9150509250925092565b600081905092915050565b6000610d9182610b2a565b610d9b8185610d7b565b9350610dab818560208601610b46565b80840191505092915050565b6000610dc38284610d86565b915081905092915050565b7f4e487b7100000000000000000000000000000000000000000000000000000000600052603260045260246000fd5b7f4e487b7100000000000000000000000000000000000000000000000000000000600052601160045260246000fd5b6000610e3782610967565b91507fffffffffffffffffffffffffffffffffffffffffffffffffffffffffffffffff8203610e6957610e68610dfd565b5b600182019050919050565b7f4e487b7100000000000000000000000000000000000000000000000000000000600052602260045260246000fd5b60006002820490506001821680610ebb57607f821691505b602082108103610ece57610ecd610e74565b5b50919050565b60008190508160005260206000209050919050565b60006020601f8301049050919050565b600082821b905092915050565b600060088302610f367fffffffffffffffffffffffffffffffffffffffffffffffffffffffffffffffff82610ef9565b610f408683610ef9565b95508019841693508086168417925050509392505050565b6000819050919050565b6000610f7d610f78610f7384610967565b610f58565b610967565b9050919050565b6000819050919050565b610f9783610f62565b610fab610fa382610f84565b848454610f06565b825550505050565b600090565b610fc0610fb3565b610fcb818484610f8e565b505050565b5b81811015610fef57610fe4600082610fb8565b600181019050610fd1565b5050565b601f8211156110345761100581610ed4565b61100e84610ee9565b8101602085101561101d578190505b61103161102985610ee9565b830182610fd0565b50505b505050565b600082821c905092915050565b600061105760001984600802611039565b1980831691505092915050565b60006110708383611046565b9150826002028217905092915050565b61108982610b2a565b67ffffffffffffffff8111156110a2576110a16107f3565b5b6110ac8254610ea3565b6110b7828285610ff3565b600060209050601f8311600181146110ea57600084156110d8578287015190505b6110e28582611064565b86555061114a565b601f1984166110f886610ed4565b60005b82811015611120578489015182556001820191506020850194506020810190506110fb565b8683101561113d5784890151611139601f891682611046565b8355505b6001600288020188555050505b505050505050565b600061115d82610967565b915061116883610967565b92508282019050808211156111805761117f610dfd565b5b9291505056fea26469706673582212207d814a53ed3c5e76a2cd70e92b80f0938840ef61b6f00ef0735eff92c47b1da864736f6c63430008120033",
  "immutableReferences": {},
  "source": "// SPDX-License-Identifier: GPL-3.0\r\n\r\npragma solidity >=0.4.22 <0.9.0;\r\n\r\ncontract CorporateVoting {\r\n  constructor() public {\r\n\r\n  }\r\n\r\n  struct EventVote {\r\n    address userAddress; // user wallet address\r\n    string uid; // user id\r\n    uint voteOptionNum; // > 0 (option number from 1)\r\n    uint timestamp; // timestamp for vote\r\n  }\r\n\r\n  struct VoteTotal {\r\n    mapping(uint => uint) totals; // mapping of option Num and total Votes\r\n    uint[] options; // options voted\r\n  }\r\n\r\n  struct Result {\r\n    uint winner;\r\n    OptionRes[] optionTotals;\r\n  }\r\n\r\n  struct OptionRes {\r\n    uint optionNum;\r\n    uint totalVotes;\r\n  }\r\n\r\n  mapping(string => VoteTotal) voteTotals; // map from event id to votes totals\r\n  mapping(string => EventVote[]) eventVotes;  // map from event id to event vote\r\n\r\n  // get result\r\n  function getResults(string memory evid) public view returns (Result memory) {\r\n    Result memory res;\r\n    // compute winner and option totals\r\n    OptionRes[] memory optionTotals = new OptionRes[](voteTotals[evid].options.length);\r\n    uint winner = 0;\r\n    for(uint i = 0; i < voteTotals[evid].options.length; i++) {\r\n      if (winner == 0) {\r\n        winner = voteTotals[evid].options[i];\r\n      }\r\n      else {\r\n        if(voteTotals[evid].totals[winner] < voteTotals[evid].totals[voteTotals[evid].options[i]]) {\r\n          winner = voteTotals[evid].options[i];\r\n        }\r\n      }\r\n\r\n      // add each option result\r\n      optionTotals[i] = OptionRes(\r\n        voteTotals[evid].options[i],\r\n        voteTotals[evid].totals[voteTotals[evid].options[i]]\r\n      );\r\n    }\r\n    res.winner = winner;\r\n    res.optionTotals = optionTotals;\r\n    return res;\r\n  }\r\n\r\n  // get all event votes\r\n  function getAllEventVotes(string memory evid) public view returns (EventVote[] memory) {\r\n    return eventVotes[evid];\r\n  }\r\n\r\n  // vote\r\n  function vote(string memory evid, string memory uid, uint option) public {\r\n    EventVote memory v;\r\n    v.uid = uid;\r\n    v.voteOptionNum = option;\r\n    v.userAddress = msg.sender;\r\n    v.timestamp = block.timestamp;\r\n    eventVotes[evid].push(v);\r\n\r\n    if(voteTotals[evid].totals[option] == 0) {\r\n      voteTotals[evid].options.push(option);\r\n    }\r\n    voteTotals[evid].totals[option] = voteTotals[evid].totals[option] + 1;\r\n\r\n  }\r\n}",
  "sourcePath": "C:\\Users\\prosh\\WebstormProjects\\voting_app\\blockchain-contract\\contracts\\CorporateVoting.sol",
  "compiler": {
    "name": "solc",
    "version": "0.8.18+commit.87f61d96.Emscripten.clang"
  },
  "schemaVersion": "3.4.12",
  "updatedAt": "2023-03-23T05:16:49.029Z",
  "networkType": "ethereum",
  "devdoc": {
    "kind": "dev",
    "methods": {},
    "version": 1
  },
  "userdoc": {
    "kind": "user",
    "methods": {},
    "version": 1
  }
}