{
  "contractName": "CorporateVoting",
  "abi": [
    {
      "inputs": [],
      "stateMutability": "nonpayable",
      "type": "constructor"
    },
    {
      "inputs": [],
      "name": "getUser",
      "outputs": [
        {
          "internalType": "bytes32",
          "name": "name",
          "type": "bytes32"
        },
        {
          "internalType": "address",
          "name": "add",
          "type": "address"
        }
      ],
      "stateMutability": "view",
      "type": "function",
      "constant": true
    },
    {
      "inputs": [
        {
          "internalType": "bytes32",
          "name": "mName",
          "type": "bytes32"
        }
      ],
      "name": "setUser",
      "outputs": [
        {
          "internalType": "bytes32",
          "name": "name",
          "type": "bytes32"
        },
        {
          "internalType": "address",
          "name": "add",
          "type": "address"
        }
      ],
      "stateMutability": "nonpayable",
      "type": "function"
    }
  ],
  "bytecode": "0x608060405234801561001057600080fd5b50610243806100206000396000f3fe608060405234801561001057600080fd5b50600436106100355760003560e01c806231a5211461003a578063832880e71461006b575b600080fd5b610054600480360381019061004f9190610167565b61008a565b6040516100629291906101e4565b60405180910390f35b6100736100de565b6040516100819291906101e4565b60405180910390f35b600080826000803373ffffffffffffffffffffffffffffffffffffffff1673ffffffffffffffffffffffffffffffffffffffff16815260200190815260200160002060000181905550823391509150915091565b6000806000803373ffffffffffffffffffffffffffffffffffffffff1673ffffffffffffffffffffffffffffffffffffffff1681526020019081526020016000206000015433915091509091565b600080fd5b6000819050919050565b61014481610131565b811461014f57600080fd5b50565b6000813590506101618161013b565b92915050565b60006020828403121561017d5761017c61012c565b5b600061018b84828501610152565b91505092915050565b61019d81610131565b82525050565b600073ffffffffffffffffffffffffffffffffffffffff82169050919050565b60006101ce826101a3565b9050919050565b6101de816101c3565b82525050565b60006040820190506101f96000830185610194565b61020660208301846101d5565b939250505056fea26469706673582212206e6e18e8346ce0eab032412be110672606259ea6e228b714beba38f09f9e99c364736f6c63430008120033",
  "immutableReferences": {},
  "source": "// SPDX-License-Identifier: MIT\npragma solidity >=0.4.22 <0.9.0;\n\ncontract CorporateVoting {\n  constructor() public {\n  }\n\n  struct Company {\n    bytes32 cin;\n    bytes32 name;\n    address[] employees;\n    address admin;\n  }\n\n  struct UserDetailsWithCompanyId {\n    bool isAdmin;\n    uint cid;\n    bytes32 email;\n  }\n  \n  struct User {\n    bytes32 name;\n    UserDetailsWithCompanyId[] companies;\n  }\n\n  mapping(address => User) users;\n  Company[] companies;\n\n  function getUser() public view returns (bytes32 name, address add) {\n    return (users[msg.sender].name, msg.sender);\n  }\n\n  function setUser(bytes32 mName) public returns (bytes32 name, address add) {\n    users[msg.sender].name = mName;\n    return (mName, msg.sender);\n  }\n\n  /*function getAllEmployees(uint cid) public view returns (address[] employees) {\n    return (companies[cid].employees);\n  }*/\n}\n",
  "sourcePath": "C:\\Users\\prosh\\WebstormProjects\\voting_app\\blockchain-contract\\contracts\\CorporateVoting.sol",
  "compiler": {
    "name": "solc",
    "version": "0.8.18+commit.87f61d96.Emscripten.clang"
  },
  "schemaVersion": "3.4.12",
  "updatedAt": "2023-02-28T12:54:35.833Z",
  "networkType": "ethereum",
  "devdoc": {
    "kind": "dev",
    "methods": {},
    "version": 1
  },
  "userdoc": {
    "kind": "user",
    "methods": {},
    "version": 1
  }
}