{
  "contractName": "CorporateVoting",
  "abi": [
    {
      "inputs": [],
      "stateMutability": "nonpayable",
      "type": "constructor"
    },
    {
      "inputs": [
        {
          "internalType": "string",
          "name": "source",
          "type": "string"
        }
      ],
      "name": "stringToBytes32",
      "outputs": [
        {
          "internalType": "bytes32",
          "name": "result",
          "type": "bytes32"
        }
      ],
      "stateMutability": "pure",
      "type": "function",
      "constant": true
    },
    {
      "inputs": [
        {
          "internalType": "bytes32",
          "name": "_bytes32",
          "type": "bytes32"
        }
      ],
      "name": "bytes32ToString",
      "outputs": [
        {
          "internalType": "string",
          "name": "",
          "type": "string"
        }
      ],
      "stateMutability": "pure",
      "type": "function",
      "constant": true
    },
    {
      "inputs": [],
      "name": "getUser",
      "outputs": [
        {
          "internalType": "string",
          "name": "name",
          "type": "string"
        },
        {
          "internalType": "address",
          "name": "add",
          "type": "address"
        }
      ],
      "stateMutability": "view",
      "type": "function",
      "constant": true
    },
    {
      "inputs": [
        {
          "internalType": "string",
          "name": "mName",
          "type": "string"
        }
      ],
      "name": "setUser",
      "outputs": [
        {
          "internalType": "string",
          "name": "name",
          "type": "string"
        },
        {
          "internalType": "address",
          "name": "add",
          "type": "address"
        }
      ],
      "stateMutability": "nonpayable",
      "type": "function"
    },
    {
      "inputs": [
        {
          "internalType": "uint256",
          "name": "cid",
          "type": "uint256"
        }
      ],
      "name": "getAllEmployees",
      "outputs": [
        {
          "components": [
            {
              "internalType": "string",
              "name": "name",
              "type": "string"
            },
            {
              "internalType": "string",
              "name": "email",
              "type": "string"
            },
            {
              "internalType": "bool",
              "name": "isAdmin",
              "type": "bool"
            },
            {
              "internalType": "uint256",
              "name": "cid",
              "type": "uint256"
            }
          ],
          "internalType": "struct CorporateVoting.UserCompanyState[]",
          "name": "",
          "type": "tuple[]"
        }
      ],
      "stateMutability": "view",
      "type": "function",
      "constant": true
    },
    {
      "inputs": [
        {
          "internalType": "uint256",
          "name": "cid",
          "type": "uint256"
        }
      ],
      "name": "getCompany",
      "outputs": [
        {
          "components": [
            {
              "internalType": "string",
              "name": "cin",
              "type": "string"
            },
            {
              "internalType": "string",
              "name": "name",
              "type": "string"
            },
            {
              "internalType": "address[]",
              "name": "employees",
              "type": "address[]"
            },
            {
              "internalType": "address",
              "name": "admin",
              "type": "address"
            }
          ],
          "internalType": "struct CorporateVoting.Company",
          "name": "",
          "type": "tuple"
        }
      ],
      "stateMutability": "view",
      "type": "function",
      "constant": true
    },
    {
      "inputs": [],
      "name": "getAllCompaniesAssociatedWithUser",
      "outputs": [
        {
          "components": [
            {
              "internalType": "string",
              "name": "email",
              "type": "string"
            },
            {
              "internalType": "bool",
              "name": "isAdmin",
              "type": "bool"
            },
            {
              "internalType": "uint256",
              "name": "cid",
              "type": "uint256"
            },
            {
              "components": [
                {
                  "internalType": "string",
                  "name": "cin",
                  "type": "string"
                },
                {
                  "internalType": "string",
                  "name": "name",
                  "type": "string"
                },
                {
                  "internalType": "address[]",
                  "name": "employees",
                  "type": "address[]"
                },
                {
                  "internalType": "address",
                  "name": "admin",
                  "type": "address"
                }
              ],
              "internalType": "struct CorporateVoting.Company",
              "name": "company",
              "type": "tuple"
            }
          ],
          "internalType": "struct CorporateVoting.CompanyState[]",
          "name": "",
          "type": "tuple[]"
        }
      ],
      "stateMutability": "view",
      "type": "function",
      "constant": true
    },
    {
      "inputs": [
        {
          "internalType": "string",
          "name": "cname",
          "type": "string"
        },
        {
          "internalType": "string",
          "name": "email",
          "type": "string"
        }
      ],
      "name": "createNewCompany",
      "outputs": [],
      "stateMutability": "nonpayable",
      "type": "function"
    },
    {
      "inputs": [
        {
          "internalType": "string",
          "name": "cname",
          "type": "string"
        },
        {
          "internalType": "string",
          "name": "email",
          "type": "string"
        },
        {
          "internalType": "string",
          "name": "cin",
          "type": "string"
        }
      ],
      "name": "createNewCompany",
      "outputs": [],
      "stateMutability": "nonpayable",
      "type": "function"
    },
    {
      "inputs": [
        {
          "internalType": "uint256",
          "name": "cid",
          "type": "uint256"
        },
        {
          "internalType": "string",
          "name": "eemail",
          "type": "string"
        }
      ],
      "name": "addEmployeeInCompany",
      "outputs": [],
      "stateMutability": "nonpayable",
      "type": "function"
    }
  ],
  "bytecode": "0x608060405234801561001057600080fd5b50612492806100206000396000f3fe608060405234801561001057600080fd5b506004361061009e5760003560e01c8063a5f8236b11610066578063a5f8236b1461016e578063aa8cccf71461018a578063cfb51928146101a8578063d0020fad146101d8578063d6abcf50146102095761009e565b8063510636a8146100a357806357d13917146100d3578063786e700b14610103578063832880e71461011f5780639201de551461013e575b600080fd5b6100bd60048036038101906100b891906116c6565b610225565b6040516100ca91906118d9565b60405180910390f35b6100ed60048036038101906100e891906116c6565b61065c565b6040516100fa9190611a5c565b60405180910390f35b61011d60048036038101906101189190611bb3565b6108a0565b005b6101276108be565b604051610135929190611c84565b60405180910390f35b61015860048036038101906101539190611cea565b610998565b6040516101659190611d17565b60405180910390f35b61018860048036038101906101839190611d39565b610b33565b005b610192610d23565b60405161019f9190611f32565b60405180910390f35b6101c260048036038101906101bd9190611f54565b6111a0565b6040516101cf9190611fac565b60405180910390f35b6101f260048036038101906101ed9190611f54565b6111ae565b604051610200929190611c84565b60405180910390f35b610223600480360381019061021e9190611fc7565b61120c565b005b606060006001838154811061023d5761023c61206e565b5b90600052602060002090600402016002018054806020026020016040519081016040528092919081815260200182805480156102ce57602002820191906000526020600020905b8160009054906101000a900473ffffffffffffffffffffffffffffffffffffffff1673ffffffffffffffffffffffffffffffffffffffff1681526020019060010190808311610284575b505050505090506000815167ffffffffffffffff8111156102f2576102f1611a88565b5b60405190808252806020026020018201604052801561032b57816020015b61031861153d565b8152602001906001900390816103105790505b50905060005b8251811015610651576000808483815181106103505761034f61206e565b5b602002602001015173ffffffffffffffffffffffffffffffffffffffff1673ffffffffffffffffffffffffffffffffffffffff16815260200190815260200160002060020160008681526020019081526020016000205060405180608001604052806000808685815181106103c8576103c761206e565b5b602002602001015173ffffffffffffffffffffffffffffffffffffffff1673ffffffffffffffffffffffffffffffffffffffff1681526020019081526020016000206000018054610418906120cc565b80601f0160208091040260200160405190810160405280929190818152602001828054610444906120cc565b80156104915780601f1061046657610100808354040283529160200191610491565b820191906000526020600020905b81548152906001019060200180831161047457829003601f168201915b505050505081526020016000808685815181106104b1576104b061206e565b5b602002602001015173ffffffffffffffffffffffffffffffffffffffff1673ffffffffffffffffffffffffffffffffffffffff16815260200190815260200160002060020160008881526020019081526020016000206002018054610515906120cc565b80601f0160208091040260200160405190810160405280929190818152602001828054610541906120cc565b801561058e5780601f106105635761010080835404028352916020019161058e565b820191906000526020600020905b81548152906001019060200180831161057157829003601f168201915b505050505081526020016000808685815181106105ae576105ad61206e565b5b602002602001015173ffffffffffffffffffffffffffffffffffffffff1673ffffffffffffffffffffffffffffffffffffffff168152602001908152602001600020600201600088815260200190815260200160002060000160009054906101000a900460ff1615158152602001868152508282815181106106335761063261206e565b5b602002602001018190525080806106499061212c565b915050610331565b508092505050919050565b610664611567565b600182815481106106785761067761206e565b5b90600052602060002090600402016040518060800160405290816000820180546106a1906120cc565b80601f01602080910402602001604051908101604052809291908181526020018280546106cd906120cc565b801561071a5780601f106106ef5761010080835404028352916020019161071a565b820191906000526020600020905b8154815290600101906020018083116106fd57829003601f168201915b50505050508152602001600182018054610733906120cc565b80601f016020809104026020016040519081016040528092919081815260200182805461075f906120cc565b80156107ac5780601f10610781576101008083540402835291602001916107ac565b820191906000526020600020905b81548152906001019060200180831161078f57829003601f168201915b505050505081526020016002820180548060200260200160405190810160405280929190818152602001828054801561083a57602002820191906000526020600020905b8160009054906101000a900473ffffffffffffffffffffffffffffffffffffffff1673ffffffffffffffffffffffffffffffffffffffff16815260200190600101908083116107f0575b505050505081526020016003820160009054906101000a900473ffffffffffffffffffffffffffffffffffffffff1673ffffffffffffffffffffffffffffffffffffffff1673ffffffffffffffffffffffffffffffffffffffff16815250509050919050565b6108ba82826040518060200160405280600081525061120c565b5050565b606060008060003373ffffffffffffffffffffffffffffffffffffffff1673ffffffffffffffffffffffffffffffffffffffff16815260200190815260200160002060000133818054610910906120cc565b80601f016020809104026020016040519081016040528092919081815260200182805461093c906120cc565b80156109895780601f1061095e57610100808354040283529160200191610989565b820191906000526020600020905b81548152906001019060200180831161096c57829003601f168201915b50505050509150915091509091565b606060005b60208160ff161080156109ef5750600060f81b838260ff16602081106109c6576109c561206e565b5b1a60f81b7effffffffffffffffffffffffffffffffffffffffffffffffffffffffffffff191614155b15610a075780806109ff90612181565b91505061099d565b60008160ff1667ffffffffffffffff811115610a2657610a25611a88565b5b6040519080825280601f01601f191660200182016040528015610a585781602001600182028036833780820191505090505b509050600091505b60208260ff16108015610ab25750600060f81b848360ff1660208110610a8957610a8861206e565b5b1a60f81b7effffffffffffffffffffffffffffffffffffffffffffffffffffffffffffff191614155b15610b2957838260ff1660208110610acd57610acc61206e565b5b1a60f81b818360ff1681518110610ae757610ae661206e565b5b60200101907effffffffffffffffffffffffffffffffffffffffffffffffffffffffffffff1916908160001a9053508180610b2190612181565b925050610a60565b8092505050919050565b60018281548110610b4757610b4661206e565b5b9060005260206000209060040201600201339080600181540180825580915050600190039060005260206000200160009091909190916101000a81548173ffffffffffffffffffffffffffffffffffffffff021916908373ffffffffffffffffffffffffffffffffffffffff160217905550600060405180606001604052806000151581526020018481526020018381525090506000803373ffffffffffffffffffffffffffffffffffffffff1673ffffffffffffffffffffffffffffffffffffffff16815260200190815260200160002060010181908060018154018082558091505060019003906000526020600020906003020160009091909190915060008201518160000160006101000a81548160ff021916908315150217905550602082015181600101556040820151816002019081610c859190612356565b505050806000803373ffffffffffffffffffffffffffffffffffffffff1673ffffffffffffffffffffffffffffffffffffffff168152602001908152602001600020600201600085815260200190815260200160002060008201518160000160006101000a81548160ff021916908315150217905550602082015181600101556040820151816002019081610d1a9190612356565b50905050505050565b606060008060003373ffffffffffffffffffffffffffffffffffffffff1673ffffffffffffffffffffffffffffffffffffffff16815260200190815260200160002090506000816001018054905067ffffffffffffffff811115610d8a57610d89611a88565b5b604051908082528060200260200182016040528015610dc357816020015b610db06115a5565b815260200190600190039081610da85790505b50905060005b82600101805490508110156111975760006001846001018381548110610df257610df161206e565b5b90600052602060002090600302016001015481548110610e1557610e1461206e565b5b9060005260206000209060040201604051806080016040529081600082018054610e3e906120cc565b80601f0160208091040260200160405190810160405280929190818152602001828054610e6a906120cc565b8015610eb75780601f10610e8c57610100808354040283529160200191610eb7565b820191906000526020600020905b815481529060010190602001808311610e9a57829003601f168201915b50505050508152602001600182018054610ed0906120cc565b80601f0160208091040260200160405190810160405280929190818152602001828054610efc906120cc565b8015610f495780601f10610f1e57610100808354040283529160200191610f49565b820191906000526020600020905b815481529060010190602001808311610f2c57829003601f168201915b5050505050815260200160028201805480602002602001604051908101604052809291908181526020018280548015610fd757602002820191906000526020600020905b8160009054906101000a900473ffffffffffffffffffffffffffffffffffffffff1673ffffffffffffffffffffffffffffffffffffffff1681526020019060010190808311610f8d575b505050505081526020016003820160009054906101000a900473ffffffffffffffffffffffffffffffffffffffff1673ffffffffffffffffffffffffffffffffffffffff1673ffffffffffffffffffffffffffffffffffffffff1681525050905060405180608001604052808560010184815481106110595761105861206e565b5b90600052602060002090600302016002018054611075906120cc565b80601f01602080910402602001604051908101604052809291908181526020018280546110a1906120cc565b80156110ee5780601f106110c3576101008083540402835291602001916110ee565b820191906000526020600020905b8154815290600101906020018083116110d157829003601f168201915b5050505050815260200185600101848154811061110e5761110d61206e565b5b906000526020600020906003020160000160009054906101000a900460ff161515815260200185600101848154811061114a5761114961206e565b5b9060005260206000209060030201600101548152602001828152508383815181106111785761117761206e565b5b602002602001018190525050808061118f9061212c565b915050610dc9565b50809250505090565b600060208201519050919050565b60606000826000803373ffffffffffffffffffffffffffffffffffffffff1673ffffffffffffffffffffffffffffffffffffffff16815260200190815260200160002060000190816112009190612356565b50823391509150915091565b611214611567565b81816000018190525083816020018190525033816060019073ffffffffffffffffffffffffffffffffffffffff16908173ffffffffffffffffffffffffffffffffffffffff16815250506001819080600181540180825580915050600190039060005260206000209060040201600090919091909150600082015181600001908161129f9190612356565b5060208201518160010190816112b59190612356565b5060408201518160020190805190602001906112d29291906115d5565b5060608201518160030160006101000a81548173ffffffffffffffffffffffffffffffffffffffff021916908373ffffffffffffffffffffffffffffffffffffffff1602179055505050600180808054905061132e9190612428565b8154811061133f5761133e61206e565b5b9060005260206000209060040201600201339080600181540180825580915050600190039060005260206000200160009091909190916101000a81548173ffffffffffffffffffffffffffffffffffffffff021916908373ffffffffffffffffffffffffffffffffffffffff16021790555060006040518060600160405280600115158152602001600180805490506113d89190612428565b81526020018581525090506000803373ffffffffffffffffffffffffffffffffffffffff1673ffffffffffffffffffffffffffffffffffffffff16815260200190815260200160002060010181908060018154018082558091505060019003906000526020600020906003020160009091909190915060008201518160000160006101000a81548160ff02191690831515021790555060208201518160010155604082015181600201908161148d9190612356565b505050806000803373ffffffffffffffffffffffffffffffffffffffff1673ffffffffffffffffffffffffffffffffffffffff1681526020019081526020016000206002016000600180805490506114e59190612428565b815260200190815260200160002060008201518160000160006101000a81548160ff0219169083151502179055506020820151816001015560408201518160020190816115329190612356565b509050505050505050565b60405180608001604052806060815260200160608152602001600015158152602001600081525090565b6040518060800160405280606081526020016060815260200160608152602001600073ffffffffffffffffffffffffffffffffffffffff1681525090565b604051806080016040528060608152602001600015158152602001600081526020016115cf611567565b81525090565b82805482825590600052602060002090810192821561164e579160200282015b8281111561164d5782518260006101000a81548173ffffffffffffffffffffffffffffffffffffffff021916908373ffffffffffffffffffffffffffffffffffffffff160217905550916020019190600101906115f5565b5b50905061165b919061165f565b5090565b5b80821115611678576000816000905550600101611660565b5090565b6000604051905090565b600080fd5b600080fd5b6000819050919050565b6116a381611690565b81146116ae57600080fd5b50565b6000813590506116c08161169a565b92915050565b6000602082840312156116dc576116db611686565b5b60006116ea848285016116b1565b91505092915050565b600081519050919050565b600082825260208201905092915050565b6000819050602082019050919050565b600081519050919050565b600082825260208201905092915050565b60005b8381101561175957808201518184015260208101905061173e565b60008484015250505050565b6000601f19601f8301169050919050565b60006117818261171f565b61178b818561172a565b935061179b81856020860161173b565b6117a481611765565b840191505092915050565b60008115159050919050565b6117c4816117af565b82525050565b6117d381611690565b82525050565b600060808301600083015184820360008601526117f68282611776565b915050602083015184820360208601526118108282611776565b915050604083015161182560408601826117bb565b50606083015161183860608601826117ca565b508091505092915050565b600061184f83836117d9565b905092915050565b6000602082019050919050565b600061186f826116f3565b61187981856116fe565b93508360208202850161188b8561170f565b8060005b858110156118c757848403895281516118a88582611843565b94506118b383611857565b925060208a0199505060018101905061188f565b50829750879550505050505092915050565b600060208201905081810360008301526118f38184611864565b905092915050565b600081519050919050565b600082825260208201905092915050565b6000819050602082019050919050565b600073ffffffffffffffffffffffffffffffffffffffff82169050919050565b600061195282611927565b9050919050565b61196281611947565b82525050565b60006119748383611959565b60208301905092915050565b6000602082019050919050565b6000611998826118fb565b6119a28185611906565b93506119ad83611917565b8060005b838110156119de5781516119c58882611968565b97506119d083611980565b9250506001810190506119b1565b5085935050505092915050565b60006080830160008301518482036000860152611a088282611776565b91505060208301518482036020860152611a228282611776565b91505060408301518482036040860152611a3c828261198d565b9150506060830151611a516060860182611959565b508091505092915050565b60006020820190508181036000830152611a7681846119eb565b905092915050565b600080fd5b600080fd5b7f4e487b7100000000000000000000000000000000000000000000000000000000600052604160045260246000fd5b611ac082611765565b810181811067ffffffffffffffff82111715611adf57611ade611a88565b5b80604052505050565b6000611af261167c565b9050611afe8282611ab7565b919050565b600067ffffffffffffffff821115611b1e57611b1d611a88565b5b611b2782611765565b9050602081019050919050565b82818337600083830152505050565b6000611b56611b5184611b03565b611ae8565b905082815260208101848484011115611b7257611b71611a83565b5b611b7d848285611b34565b509392505050565b600082601f830112611b9a57611b99611a7e565b5b8135611baa848260208601611b43565b91505092915050565b60008060408385031215611bca57611bc9611686565b5b600083013567ffffffffffffffff811115611be857611be761168b565b5b611bf485828601611b85565b925050602083013567ffffffffffffffff811115611c1557611c1461168b565b5b611c2185828601611b85565b9150509250929050565b600082825260208201905092915050565b6000611c478261171f565b611c518185611c2b565b9350611c6181856020860161173b565b611c6a81611765565b840191505092915050565b611c7e81611947565b82525050565b60006040820190508181036000830152611c9e8185611c3c565b9050611cad6020830184611c75565b9392505050565b6000819050919050565b611cc781611cb4565b8114611cd257600080fd5b50565b600081359050611ce481611cbe565b92915050565b600060208284031215611d0057611cff611686565b5b6000611d0e84828501611cd5565b91505092915050565b60006020820190508181036000830152611d318184611c3c565b905092915050565b60008060408385031215611d5057611d4f611686565b5b6000611d5e858286016116b1565b925050602083013567ffffffffffffffff811115611d7f57611d7e61168b565b5b611d8b85828601611b85565b9150509250929050565b600081519050919050565b600082825260208201905092915050565b6000819050602082019050919050565b60006080830160008301518482036000860152611dde8282611776565b91505060208301518482036020860152611df88282611776565b91505060408301518482036040860152611e12828261198d565b9150506060830151611e276060860182611959565b508091505092915050565b60006080830160008301518482036000860152611e4f8282611776565b9150506020830151611e6460208601826117bb565b506040830151611e7760408601826117ca565b5060608301518482036060860152611e8f8282611dc1565b9150508091505092915050565b6000611ea88383611e32565b905092915050565b6000602082019050919050565b6000611ec882611d95565b611ed28185611da0565b935083602082028501611ee485611db1565b8060005b85811015611f205784840389528151611f018582611e9c565b9450611f0c83611eb0565b925060208a01995050600181019050611ee8565b50829750879550505050505092915050565b60006020820190508181036000830152611f4c8184611ebd565b905092915050565b600060208284031215611f6a57611f69611686565b5b600082013567ffffffffffffffff811115611f8857611f8761168b565b5b611f9484828501611b85565b91505092915050565b611fa681611cb4565b82525050565b6000602082019050611fc16000830184611f9d565b92915050565b600080600060608486031215611fe057611fdf611686565b5b600084013567ffffffffffffffff811115611ffe57611ffd61168b565b5b61200a86828701611b85565b935050602084013567ffffffffffffffff81111561202b5761202a61168b565b5b61203786828701611b85565b925050604084013567ffffffffffffffff8111156120585761205761168b565b5b61206486828701611b85565b9150509250925092565b7f4e487b7100000000000000000000000000000000000000000000000000000000600052603260045260246000fd5b7f4e487b7100000000000000000000000000000000000000000000000000000000600052602260045260246000fd5b600060028204905060018216806120e457607f821691505b6020821081036120f7576120f661209d565b5b50919050565b7f4e487b7100000000000000000000000000000000000000000000000000000000600052601160045260246000fd5b600061213782611690565b91507fffffffffffffffffffffffffffffffffffffffffffffffffffffffffffffffff8203612169576121686120fd565b5b600182019050919050565b600060ff82169050919050565b600061218c82612174565b915060ff820361219f5761219e6120fd565b5b600182019050919050565b60008190508160005260206000209050919050565b60006020601f8301049050919050565b600082821b905092915050565b60006008830261220c7fffffffffffffffffffffffffffffffffffffffffffffffffffffffffffffffff826121cf565b61221686836121cf565b95508019841693508086168417925050509392505050565b6000819050919050565b600061225361224e61224984611690565b61222e565b611690565b9050919050565b6000819050919050565b61226d83612238565b6122816122798261225a565b8484546121dc565b825550505050565b600090565b612296612289565b6122a1818484612264565b505050565b5b818110156122c5576122ba60008261228e565b6001810190506122a7565b5050565b601f82111561230a576122db816121aa565b6122e4846121bf565b810160208510156122f3578190505b6123076122ff856121bf565b8301826122a6565b50505b505050565b600082821c905092915050565b600061232d6000198460080261230f565b1980831691505092915050565b6000612346838361231c565b9150826002028217905092915050565b61235f8261171f565b67ffffffffffffffff81111561237857612377611a88565b5b61238282546120cc565b61238d8282856122c9565b600060209050601f8311600181146123c057600084156123ae578287015190505b6123b8858261233a565b865550612420565b601f1984166123ce866121aa565b60005b828110156123f6578489015182556001820191506020850194506020810190506123d1565b86831015612413578489015161240f601f89168261231c565b8355505b6001600288020188555050505b505050505050565b600061243382611690565b915061243e83611690565b9250828203905081811115612456576124556120fd565b5b9291505056fea2646970667358221220ccc7669cd59c1e97facc255e813523afc128e8203bfd258964f7f0ce6468633d64736f6c63430008120033",
  "immutableReferences": {},
  "source": "// SPDX-License-Identifier: MIT\npragma solidity >=0.4.22 <0.9.0;\n\ncontract CorporateVoting {\n  constructor() public {\n  }\n\n  struct Company {\n    string cin;\n    string name;\n    address[] employees;\n    address admin;\n  }\n\n  struct UserDetailsWithCompanyId {\n    bool isAdmin;\n    uint cid;\n    string email;\n  }\n\n  struct User {\n    string name;\n    UserDetailsWithCompanyId[] companies;\n    mapping(uint => UserDetailsWithCompanyId) mappingOfCidToCompaniesDetails;\n  }\n\n  mapping(address => User) users;\n  Company[] companies;\n\n  struct UserCompanyState {\n    string name;\n    string email;\n    bool isAdmin;\n    uint cid;\n  }\n\n  struct CompanyState {\n    string email;\n    bool isAdmin;\n    uint cid;\n    Company company;\n  }\n\n  function stringToBytes32(string memory source) public pure returns (bytes32 result) {\n    // require(bytes(source).length <= 32); // causes error\n    // but string have to be max 32 chars\n    // https://ethereum.stackexchange.com/questions/9603/understanding-mload-assembly-function\n    // http://solidity.readthedocs.io/en/latest/assembly.html\n    assembly {\n      result := mload(add(source, 32))\n    }\n  }\n\n  function bytes32ToString(bytes32 _bytes32) public pure returns (string memory) {\n    uint8 i = 0;\n    while(i < 32 && _bytes32[i] != 0) {\n      i++;\n    }\n    bytes memory bytesArray = new bytes(i);\n    for (i = 0; i < 32 && _bytes32[i] != 0; i++) {\n      bytesArray[i] = _bytes32[i];\n    }\n    return string(bytesArray);\n  }\n\n  function getUser() public view returns (string memory name, address add) {\n    return (users[msg.sender].name, msg.sender);\n  }\n\n  function setUser(string memory mName) public returns (string memory name, address add) {\n    users[msg.sender].name = mName;\n    return (mName, msg.sender);\n  }\n\n  function getAllEmployees(uint cid) public view returns (UserCompanyState[] memory) {\n    address[] memory employeeAdd = companies[cid].employees;\n    UserCompanyState[] memory employees = new UserCompanyState[](employeeAdd.length);\n\n    for (uint i = 0; i < employeeAdd.length; i++) {\n      users[employeeAdd[i]].mappingOfCidToCompaniesDetails[cid].email;\n      employees[i] = UserCompanyState(\n        users[employeeAdd[i]].name,\n        users[employeeAdd[i]].mappingOfCidToCompaniesDetails[cid].email,\n        users[employeeAdd[i]].mappingOfCidToCompaniesDetails[cid].isAdmin,\n        cid\n      );\n    }\n    return employees;\n  }\n\n  function getCompany(uint cid) public view returns (Company memory) {\n    return companies[cid];\n  }\n\n  function getAllCompaniesAssociatedWithUser() public view returns (CompanyState[] memory) {\n    User storage u = users[msg.sender];\n    CompanyState[] memory mCompanies = new CompanyState[](u.companies.length);\n\n    for (uint i = 0; i < u.companies.length; i++) {\n      Company memory c = companies[u.companies[i].cid];\n      mCompanies[i] = CompanyState(\n        u.companies[i].email,\n        u.companies[i].isAdmin,\n        u.companies[i].cid,\n        c\n      );\n    }\n    return mCompanies;\n  }\n\n  // create new company with cin\n  function createNewCompany(string memory cname, string memory email, string memory cin) public {\n    Company memory c;\n    c.cin = cin;\n    c.name = cname;\n    c.admin = msg.sender;\n    companies.push(c);\n    companies[companies.length - 1].employees.push(msg.sender);\n    UserDetailsWithCompanyId memory userDetails = UserDetailsWithCompanyId(true, companies.length - 1, email);\n    users[msg.sender].companies.push(userDetails);\n    users[msg.sender].mappingOfCidToCompaniesDetails[companies.length - 1] = userDetails;\n  }\n\n  // create new company without cin\n  function createNewCompany(string memory cname, string memory email) public {\n    createNewCompany(cname, email, \"\");\n  }\n\n  // this function will be call when user will verify from the email\n  function addEmployeeInCompany(uint cid, string memory eemail) public {\n    companies[cid].employees.push(msg.sender);\n    UserDetailsWithCompanyId memory userDetails = UserDetailsWithCompanyId(false, cid, eemail);\n    users[msg.sender].companies.push(userDetails);\n    users[msg.sender].mappingOfCidToCompaniesDetails[cid] = userDetails;\n  }\n}\n",
  "sourcePath": "C:\\Users\\prosh\\WebstormProjects\\voting_app\\blockchain-contract\\contracts\\CorporateVoting.sol",
  "compiler": {
    "name": "solc",
    "version": "0.8.18+commit.87f61d96.Emscripten.clang"
  },
  "schemaVersion": "3.4.12",
  "updatedAt": "2023-03-02T03:46:01.453Z",
  "networkType": "ethereum",
  "devdoc": {
    "kind": "dev",
    "methods": {},
    "version": 1
  },
  "userdoc": {
    "kind": "user",
    "methods": {},
    "version": 1
  }
}